:020000040000FA
:040000009AEF12F071
:10060000003F065B4F666D7D077F6F777C395E79B3
:1006100071554C4452535841425973554C44520001
:10062000554C44520042656D2D56696E646F2861C9
:100630002900696E76616C69646121210053656EE1
:1006400068613A2000456E7472616461005573659B
:05065000723A200000D9
:10065600AAEC12F076EC0EF0DBEC11F08DEC12F059
:10066600DBEC10F0000E176E58EC11F006EC0BF0F8
:100676007FEF05F0010E7EEC12F0000E106E000EFC
:100686000F6E000E126E000E116EBEEC11F04D0EC6
:100696000F6E060E106E06EC11F0000E106E010EB7
:1006A6000F6E000E126E000E116EBEEC11F03D0EB6
:1006B6000F6E060E106E06EC11F0000E106E000E98
:1006C6000F6E000E126E060E116EBEEC11F0010ECC
:1006D600176EA4EF05F020EC10F0176E06EC0BF089
:1006E600020E1718D8A47AEF03F07CEF03F0A4EFFC
:1006F60005F0000E106E010E0F6E000E126E070E44
:10070600116EBEEC11F0A4EF05F051EC10F0176E6F
:1007160006EC0BF0030E1718D8A494EF03F096EF2F
:1007260003F0A4EF05F0010E7EEC12F0A4EF05F045
:1007360028EC0FF00009D8B4A3EF03F0A5EF03F0FF
:10074600A9EF03F0040E176EA4EF05F0050E176E61
:1007560006EC0BF0000E106E000E0F6E000E126E01
:10076600000E116EBEEC11F0450E0F6E060E106EE9
:1007760006EC11F0000E106E010E0F6E000E126EDA
:10078600000E116EBEEC11F0320E0F6E060E106EDC
:1007960006EC11F0A4EF05F0000E106E000E0F6EC1
:1007A600000E126E020E116EBEEC11F0250E0F6ECB
:1007B600060E106E06EC11F0130E106E880E0F6EFC
:1007C60049EC12F0320EEAEC0FF00E0E196E110E15
:1007D600186E100E181809E10E0E1918D8B4F6EF97
:1007E60003F0F8EF03F002EF04F0640E1818191086
:1007F600D8A400EF04F002EF04F007EF04F0640E53
:10080600EAEC0FF01FEF04F0AC0E181809E10D0E1C
:100816001918D8B411EF04F013EF04F01CEF04F02C
:1008260018041910D8A41AEF04F01CEF04F01FEFF7
:1008360004F0000EEAEC0FF0030E0F6E000E046ECD
:100846003C0E036E18C001F019C002F014EC0EF055
:1008560001C009F002C00AF0000E0C6E0A0E0B6E03
:10086600D0EC0EF00950AFEC10F0020E0F6E020E37
:10087600046E580E036E18C001F019C002F014EC95
:100886000EF001C009F002C00AF0000E0C6E060E52
:100896000B6ED0EC0EF00950AFEC10F006EC0BF03E
:1008A600000E1E6E000E1F6E000E206E000E216ED4
:1008B6001EC001F01FC002F020C003F021C004F0EA
:1008C600000E056E000E066E5C0E076E420E086E7A
:1008D60092EC0DF0D8A072EF04F074EF04F076EF0E
:1008E60004F0A9EF04F01EC001F01FC002F020C002
:1008F60003F021C004F0000E056E000E066E800E99
:10090600076E3F0E086E58EC06F001C01EF002C0DE
:100916001FF003C020F004C021F01EC001F01FC06C
:1009260002F020C003F021C004F0000E056E000E98
:10093600066E5C0E076E420E086E92EC0DF0D8A0A5
:10094600A7EF04F0A9EF04F076EF04F01806D8A09C
:10095600190619BEB9EF04F0195006E11804D8B00B
:10096600B7EF04F0B9EF04F0ECEF03F0000EEAEC99
:100976000FF0000E176EA4EF05F0020E196E260E8C
:10098600186E260E181809E1020E1918D8B4CEEF03
:1009960004F0D0EF04F0DAEF04F0640E1818191022
:1009A600D8A4D8EF04F0DAEF04F0DFEF04F0640E19
:1009B600EAEC0FF0F6EF04F0C20E181808E119047D
:1009C600D8B4E8EF04F0EAEF04F0F3EF04F018040B
:1009D6001910D8A4F1EF04F0F3EF04F0F6EF04F0E9
:1009E600000EEAEC0FF0030E0F6E000E046E640E9E
:1009F600036E18C001F019C002F014EC0EF001C02D
:100A060009F002C00AF0000E0C6E0A0E0B6ED0EC56
:100A16000EF00950AFEC10F006EC0BF0000E1E6E57
:100A2600000E1F6E000E206E000E216E1EC001F01D
:100A36001FC002F020C003F021C004F0000E056EB6
:100A4600000E066EC80E076E410E086E92EC0DF093
:100A5600D8A030EF05F032EF05F034EF05F067EF80
:100A660005F01EC001F01FC002F020C003F021C037
:100A760004F0000E056E000E066E800E076E3F0E29
:100A8600086E58EC06F001C01EF002C01FF003C04D
:100A960020F004C021F01EC001F01FC002F020C0EB
:100AA60003F021C004F0000E056E000E066EC80E9F
:100AB600076E410E086E92EC0DF0D8A065EF05F0BA
:100AC60067EF05F034EF05F01806D8A0190619BE31
:100AD60077EF05F0195006E11804D8B075EF05F068
:100AE60077EF05F0C4EF04F0000EEAEC0FF0010E0C
:100AF6007EEC12F0BCEF04F01750156E166A165015
:100B0600000AD8B489EF05F0A4EF05F01550000AE5
:100B1600D8B43DEF03F0010AD8B46EEF03F0030A30
:100B2600D8B488EF03F0010AD8B49BEF03F0070AA4
:100B3600D8B4CFEF03F0010AD8B4C0EF04F0A4EFA5
:100B460005F058EC11F0000E1E6E000E1F6E000E22
:100B5600206E000E216E1EC001F01FC002F020C0E4
:100B660003F021C004F0000E056E000E066E400E66
:100B7600076E410E086E92EC0DF0D8A0C5EF05F099
:100B8600C7EF05F0C9EF05F039EF03F006EC0BF0FF
:100B9600000E1A6E000E1B6E000E1C6E000E1D6EF1
:100BA6001AC001F01BC002F01CC003F01DC004F007
:100BB600000E056E000E066E200E076E410E086EC4
:100BC60092EC0DF0D8A0EAEF05F0ECEF05F0EEEFB1
:100BD60005F021EF06F01AC001F01BC002F01CC0A0
:100BE60003F01DC004F0000E056E000E066E800EAA
:100BF600076E3F0E086E58EC06F001C01AF002C0F0
:100C06001BF003C01CF004C01DF01AC001F01BC08D
:100C160002F01CC003F01DC004F0000E056E000EAD
:100C2600066E200E076E410E086E92EC0DF0D8A0EF
:100C36001FEF06F021EF06F0EEEF05F01EC001F003
:100C46001FC002F020C003F021C004F0000E056EA4
:100C5600000E066E800E076E3F0E086E58EC06F00C
:100C660001C01EF002C01FF003C020F004C021F036
:100C76001EC001F01FC002F020C003F021C004F026
:100C8600000E056E000E066E400E076E410E086ED3
:100C960092EC0DF0D8A052EF06F054EF06F0C9EF33
:100CA60005F039EF03F000EF00F00450800B0D6EF5
:100CB600045004240F6E03AE63EF06F065EF06F0F2
:100CC60066EF06F00F800F50D8B46CEF06F06EEFAB
:100CD60006F083EF06F00F28D8A474EF06F076EF3F
:100CE60006F07EEF06F0000E016E000E026E000E9C
:100CF600036E000E046E038E000E046E8BEF06F07C
:100D0600000E016E000E026E000E036E000E046EE3
:100D16000850800B0E6E0D500E18D8B495EF06F0E5
:100D260097EF06F098EF06F00D8C085008240E6E2B
:100D360007AEA0EF06F0A2EF06F0A3EF06F00E80D6
:100D46000E50D8B4A9EF06F0ABEF06F0C0EF06F0F0
:100D56000E28D8A4B1EF06F0B3EF06F0BBEF06F00D
:100D6600000E056E000E066E000E076E000E086E73
:100D7600078E000E086EC8EF06F0000E056E000E18
:100D8600066E000E076E000E086E0F500E5CD8B091
:100D9600CFEF06F0D1EF06F0F8EF06F00DACD6EF88
:100DA60006F0D8EF06F0DAEF06F0800E0D1A0FC047
:100DB60010F00EC00FF010C00EF001C010F005C00C
:100DC60001F010C005F002C010F006C002F010C01D
:100DD60006F003C010F007C003F010C007F004C00F
:100DE60010F008C004F010C008F0000E106E0F508E
:100DF6000EC009F00A6A095E000E0A5A0ABE0DEF15
:100E060007F00A5009E11A0E095CD8A00DEF07F0A9
:100E16000FEF07F046EF07F0015002100310041021
:100E2600D8A418EF07F01BEF07F0010E1CEF07F030
:100E3600000E106E000E016E000E026E000E036EA6
:100E4600000E046E0EC00FF04FEF07F010A02EEF4D
:100E560007F030EF07F036EF07F0D89010300109B1
:100E6600106E38EF07F0D890103201A03DEF07F072
:100E76003FEF07F040EF07F0108E043404320332E0
:100E8600023201320F2A0E500F5CD8A04DEF07F048
:100E96004FEF07F029EF07F00DBC54EF07F056EFC0
:100EA60007F096EF07F00F50D8A45CEF07F05EEF5F
:100EB60007F068EF07F0000E016E000E026E000EDE
:100EC600036E000E046EB7EF08F0055001260650BB
:100ED6000222075003220850042204A075EF07F0EF
:100EE60077EF07F023EF08F010A07CEF07F07EEF16
:100EF60007F084EF07F0D89010300109106E86EFE6
:100F060007F0D890103201A08BEF07F08DEF07F0B5
:100F16008EEF07F0108E04340432033202320132AF
:100F26000F2A23EF08F00550015C065002580750BF
:100F360003580450800A096E0850800A0958D8B030
:100F4600A7EF07F0A9EF07F0D4EF07F00150055C13
:100F5600096E025006580A6E035007580B6E04506D
:100F660008580C6EFF0E0924016EFF0E0A20026E51
:100F7600FF0E0B20036EFF0E0C20046E800E0D1A62
:100F8600106C1050D8A4CAEF07F0CCEF07F0DCEFD6
:100F960007F0010E0126000E022203220422DCEFD6
:100FA60007F00550015E0650025A0750035A0850D2
:100FB600045A0150021003100410D8A4E5EF07F0FC
:100FC600E7EF07F01CEF08F01050D8A4EDEF07F09C
:100FD600EFEF07F01CEF08F0000E016E000E026E38
:100FE600000E036E000E046EB7EF08F0D8900136BF
:100FF60002360336043610AE03EF08F005EF08F0AC
:1010060006EF08F0018010A00BEF08F00DEF08F0D6
:1010160011EF08F0D880103613EF08F0D89010368C
:101026000F50D8B419EF08F01BEF08F01CEF08F0CA
:101036000F0603AE21EF08F023EF08F0F9EF07F0F3
:10104600000E0E6E10AE2AEF08F02CEF08F044EFFB
:1010560008F010C009F07F0E0916D8B435EF08F075
:1010660037EF08F03BEF08F0010E0E6E44EF08F084
:1010760001A040EF08F042EF08F044EF08F037EF28
:1010860008F00E50D8B44AEF08F04CEF08F077EFAE
:1010960008F0010E0126000E02220322042204A0FB
:1010A60057EF08F059EF08F077EF08F001C009F0A4
:1010B60002C00AF003C00BF004C00CF00C340C3272
:1010C6000B320A32093209C001F00AC002F00BC025
:1010D60003F00CC004F00F28D8B474EF08F076EFD4
:1010E60008F077EF08F00F2A0F28D8B47DEF08F044
:1010F6007FEF08F087EF08F00F50D8A485EF08F0CF
:1011060087EF08F099EF08F0000E016E000E026EF0
:10111600000E036E000E046E0F50D8A495EF08F073
:1011260097EF08F099EF08F0000E0D6E0FA09EEFF6
:1011360008F0A0EF08F0A3EF08F0038EA4EF08F084
:10114600039ED8900F30046E0DAEACEF08F0AEEFF4
:1011560008F0AFEF08F0048E01C001F002C002F003
:1011660003C003F004C004F0120002BEC6EF08F08C
:10117600025007E1080E015CD8B0C4EF08F0C6EFD4
:1011860008F0F0EF08F003500410D8B4CDEF08F0E3
:10119600CFEF08F0DFEF08F001C005F0010E066E94
:1011A600052AD8EF08F0D8900636052ED6EF08F0B7
:1011B60006508012DEEF09F001C005F0010E066E42
:1011C600052AE8EF08F0D8900636052EE6EF08F077
:1011D6000650FF0A8016DEEF09F002BEFEEF08F0A9
:1011E600025007E1100E015CD8B0FCEF08F0FEEFEC
:1011F60008F02CEF09F0F80E0126FF0E022203502C
:101206000410D8B409EF09F00BEF09F01BEF09F051
:1012160001C005F0010E066E052A14EF09F0D890FC
:101226000636052E12EF09F006508112DEEF09F0A0
:1012360001C005F0010E066E052A24EF09F0D890CC
:101246000636052E22EF09F00650FF0A8116DEEF5C
:1012560009F002BE3AEF09F0025007E1180E015CF0
:10126600D8B038EF09F03AEF09F068EF09F0F00E60
:101276000126FF0E022203500410D8B445EF09F0F0
:1012860047EF09F057EF09F001C005F0010E066EB1
:10129600052A50EF09F0D8900636052E4EEF09F0D4
:1012A60006508212DEEF09F001C005F0010E066E4F
:1012B600052A60EF09F0D8900636052E5EEF09F094
:1012C6000650FF0A8216DEEF09F002BE76EF09F03D
:1012D600025007E1200E015CD8B074EF09F076EFFA
:1012E60009F0A4EF09F0E80E0126FF0E02220350D2
:1012F6000410D8B481EF09F083EF09F093EF09F0F9
:1013060001C005F0010E066E052A8CEF09F0D89093
:101316000636052E8AEF09F006508312DEEF09F035
:1013260001C005F0010E066E052A9CEF09F0D89063
:101336000636052E9AEF09F00650FF0A8316DEEFF1
:1013460009F002BEB2EF09F0025007E1280E015C77
:10135600D8B0B0EF09F0B2EF09F0DEEF09F0E00E19
:101366000126FF0E022203500410D8B4BDEF09F087
:10137600BFEF09F0CFEF09F001C005F0010E066ED0
:10138600052AC8EF09F0D8900636052EC6EF09F0F3
:1013960006508412DEEF09F001C005F0010E066E5C
:1013A600052AD8EF09F0D8900636052ED6EF09F0B3
:1013B6000650FF0A8416120002BEEDEF09F0025035
:1013C60007E1080E015CD8B0EBEF09F0EDEF09F08C
:1013D60017EF0AF003500410D8B4F4EF09F0F6EF53
:1013E60009F006EF0AF001C005F0010E066E052AA7
:1013F600FFEF09F0D8900636052EFDEF09F00650EE
:10140600921205EF0BF001C005F0010E066E052ADB
:101416000FEF0AF0D8900636052E0DEF0AF00650AB
:10142600FF0A921605EF0BF002BE25EF0AF00250F6
:1014360007E1100E015CD8B023EF0AF025EF0AF0A1
:1014460053EF0AF003500410D8B42CEF0AF02EEF35
:101456000AF040EF0AF001C005F0F80E0526010E6D
:10146600066E052A39EF0AF0D8900636052E37EFB4
:101476000AF00650931205EF0BF001C005F0F80EC6
:101486000526010E066E052A4BEF0AF0D8900636A1
:10149600052E49EF0AF00650FF0A931605EF0BF0EA
:1014A60002BE61EF0AF0025007E1180E015CD8B0E7
:1014B6005FEF0AF061EF0AF08FEF0AF003500410B5
:1014C600D8B468EF0AF06AEF0AF07CEF0AF001C0C0
:1014D60005F0F00E0526010E066E052A75EF0AF0D8
:1014E600D8900636052E73EF0AF00650941205EFD3
:1014F6000BF001C005F0F00E0526010E066E052A5A
:1015060087EF0AF0D8900636052E85EF0AF00650CA
:10151600FF0A941605EF0BF002BE9DEF0AF002508B
:1015260007E1200E015CD8B09BEF0AF09DEF0AF0B0
:10153600CBEF0AF003500410D8B4A4EF0AF0A6EFDC
:101546000AF0B8EF0AF001C005F0E80E0526010E14
:10155600066E052AB1EF0AF0D8900636052EAFEFD3
:101566000AF00650951205EF0BF001C005F0E80EE3
:101576000526010E066E052AC3EF0AF0D890063638
:10158600052EC1EF0AF00650FF0A951605EF0BF07F
:1015960002BED9EF0AF0025007E1280E015CD8B06E
:1015A600D7EF0AF0D9EF0AF005EF0BF0035004105D
:1015B600D8B4E0EF0AF0E2EF0AF0F4EF0AF001C067
:1015C60005F0E00E0526010E066E052AEDEF0AF07F
:1015D600D8900636052EEBEF0AF00650961205EF68
:1015E6000BF001C005F0E00E0526010E066E052A79
:1015F600FFEF0AF0D8900636052EFDEF0AF00650EA
:10160600FF0A96161200000E026E180E016E000EEC
:10161600046E000E036EB8EC08F0000E026E190E92
:10162600016E000E046E000E036EB8EC08F0000E9C
:10163600026E1A0E016E000E046E000E036EB8ECFA
:1016460008F0000E026E1B0E016E000E046E000EF8
:10165600036EB8EC08F0000E086E000E076E31EC53
:1016660011F09EEF0BF0010E3524F66EF76A060EAA
:10167600F7220800F550076E086A31EC11F0000EEB
:10168600026E180E016E000E046E010E036EB8ECAB
:1016960008F0010E366EBBEF0BF0010E3424F66E29
:1016A600F76A060EF7220800F550076E086A31EC55
:1016B60011F0000E026E190E016E000E046E010E80
:1016C600036EB8EC08F0020E366EBBEF0BF0010E9F
:1016D6003324F66EF76A060EF7220800F550076EF9
:1016E600086A31EC11F0000E026E1A0E016E000E41
:1016F600046E010E036EB8EC08F0030E366EBBEFF7
:101706000BF0010E3224F66EF76A060EF722080079
:10171600F550076E086A31EC11F0000E026E1B0ED2
:10172600016E000E046E010E036EB8EC08F0000E9A
:10173600366EBBEF0BF036500A6E0B6A0B50000A82
:10174600D8B4A8EF0BF09AEF0BF00A50000AD8B401
:1017560036EF0BF0010AD8B450EF0BF0030AD8B4F9
:101766006AEF0BF0010AD8B484EF0BF09AEF0BF096
:10177600120002BECAEF0BF0025007E1080E015C30
:10178600D8B0C8EF0BF0CAEF0BF0DEEF0BF001C0DC
:1017960003F0010E046E032AD3EF0BF0D890043643
:1017A600032ED1EF0BF004508014056E0550016E28
:1017B600026A70EF0CF002BEECEF0BF0025007E18C
:1017C600100E015CD8B0EAEF0BF0ECEF0BF002EF75
:1017D6000CF001C003F0F80E0326010E046E032A76
:1017E600F7EF0BF0D8900436032EF5EF0BF004500C
:1017F6008114056E0550016E026A70EF0CF002BE90
:1018060010EF0CF0025007E1180E015CD8B00EEF95
:101816000CF010EF0CF026EF0CF001C003F0F00E08
:101826000326010E046E032A1BEF0CF0D890043633
:10183600032E19EF0CF004508214056E0550016E4C
:10184600026A70EF0CF002BE34EF0CF0025007E1B2
:10185600200E015CD8B032EF0CF034EF0CF04AEFFA
:101866000CF001C003F0E80E0326010E046E032AF5
:101876003FEF0CF0D8900436032E3DEF0CF00450E9
:101886008314056E0550016E026A70EF0CF002BEFD
:1018960058EF0CF0025007E1280E015CD8B056EF65
:1018A6000CF058EF0CF06EEF0CF001C003F0E00EF8
:1018B6000326010E046E032A63EF0CF0D89004365B
:1018C600032E61EF0CF004508414056E0550016E72
:1018D600026A70EF0CF0016802681200000E2F6EAB
:1018E600000E2E6E000E0E6E000E0D6E0EBE85EFF5
:1018F6000CF00E5009E1050E0D5CD8A085EF0CF03A
:1019060087EF0CF089EF0CF0EAEF0CF00DC00AF04F
:10191600030E0A26010E0B6E000E0C6E0A2A97EFB6
:101926000CF0D8900B360C360A2E94EF0CF00BC048
:1019360007F00CC008F031EC11F0000E026E0A0E32
:10194600016EBCEC0BF001500210D8B4ADEF0CF0F8
:10195600AFEF0CF0C2EF0CF00DC00AF0010E0B6EEB
:10196600000E0C6E0A2ABBEF0CF0D8900B360C3624
:101976000A2EB8EF0CF00B502E120C502F12000E40
:10198600026E090E016EBCEC0BF001500210D8B4C9
:10199600CFEF0CF0D1EF0CF0E6EF0CF00DC00AF033
:1019A600050E0A26010E0B6E000E0C6E0A2ADFEFDC
:1019B6000CF0D8900B360C360A2EDCEF0CF00B50E0
:1019C6002E120C502F120D4A0E2A79EF0CF02E50C3
:1019D6002C1807E12F502D18D8A4F4EF0CF0F6EFD1
:1019E6000CF0F9EF0CF03706FFEF0CF0010E376E36
:1019F6002EC02CF02FC02DF03750D8A405EF0DF0D7
:101A060007EF0DF00BEF0DF02CC030F02DC031F0CC
:101A16001200000E0A6E08BE15EF0DF013EF0DF062
:101A26001FEF0DF0081E071E061E056C000E06228F
:101A360007220822010E0A6E04BE26EF0DF024EFDF
:101A46000DF030EF0DF0041E031E021E016C000E99
:101A5600022203220422010E0A1A000E0B6E000E49
:101A66000C6E000E0D6E000E0E6E05500610071061
:101A76000810D8B441EF0DF043EF0DF079EF0DF0FB
:101A8600010E096E4DEF0DF0D89005360636073675
:101A96000836092A08AE52EF0DF054EF0DF047EF65
:101AA6000DF0D8900B360C360D360E360550015C0F
:101AB600065002580750035808500458D8A066EF3D
:101AC6000DF068EF0DF071EF0DF00550015E065058
:101AD600025A0750035A0850045A0B80D89008320D
:101AE600073206320532092E54EF0DF00A50D8B4EB
:101AF6007FEF0DF081EF0DF089EF0DF00E1E0D1E3C
:101B06000C1E0B6C000E0C220D220E220BC001F0D7
:101B16000CC002F00DC003F00EC004F01200000E5F
:101B26000114096E000E02140A6E800E03140B6E69
:101B36007F0E04140C6E09500A100B100C10D8A45A
:101B4600A7EF0DF0A9EF0DF0B1EF0DF0000E016E4D
:101B5600000E026E000E036E000E046E000E0514DB
:101B6600096E000E06140A6E800E07140B6E7F0EA9
:101B760008140C6E09500A100B100C10D8A4C6EFEE
:101B86000DF0C8EF0DF0D0EF0DF0000E056E000E53
:101B9600066E000E076E000E086E04AED5EF0DF051
:101BA600D7EF0DF0E0EF0DF0016C021ED8B0022A5F
:101BB600031ED8B0032A800E045608AEE5EF0DF0DA
:101BC600E7EF0DF0F0EF0DF0056C061ED8B0062A13
:101BD600071ED8B0072A800E0856000E011A000EFE
:101BE600021A000E031A800E041A000E051A000EC1
:101BF600061A000E071A800E081A0550015C0650D8
:101C060002580750035808500458D8B00DEF0EF08C
:101C16000FEF0EF012EF0EF0D89013EF0EF0D88003
:101C26001200000E066E04BE1DEF0EF01BEF0EF046
:101C360023EF0EF0036C041ED8B0042A010E066EC4
:101C460002BE2AEF0EF028EF0EF030EF0EF0016C18
:101C5600021ED8B0022A010E061A000E086E000EE9
:101C6600076E03500410D8B43BEF0EF03DEF0EF0B4
:101C760065EF0EF0010E056E45EF0EF0D8900336B7
:101C86000436052A04AE4AEF0EF04CEF0EF041EF93
:101C96000EF0D890073608360350015C04500258FF
:101CA600D8A058EF0EF05AEF0EF05FEF0EF003508B
:101CB600015E0450025A0780D89004320332052E82
:101CC6004CEF0EF00650D8B46BEF0EF06DEF0EF041
:101CD60071EF0EF0076C081ED8B0082A07C001F095
:101CE60008C002F01200000E026E1C0E016E000EFD
:101CF600046E000E036EDFEC09F0000E026E1D0E80
:101D0600016E000E046E000E036EDFEC09F09FEC10
:101D160011F0000E026E0F0E016EF4EC11F0000EC3
:101D26000B6E000E0A6E030E5CEC12F0000E026ED5
:101D3600050E016EF4EC11F0000E0B6E000E0A6E2D
:101D4600030E5CEC12F0000E026EA00E016EAEECFD
:101D560012F0000E0B6E000E0A6E030E5CEC12F013
:101D6600000E026EA00E016EAEEC12F0000E0B6EAF
:101D7600000E0A6E020E5CEC12F0000E026E0A0EE7
:101D8600016EF4EC11F0280E7EEC12F00C0E7EECD7
:101D960012F0010E7EEC12F01200000E0E6E0ABE5C
:101DA600D9EF0EF0D7EF0EF0DFEF0EF0096C0A1E3A
:101DB600D8B00A2A010E0E6E0CBEE6EF0EF0E4EF66
:101DC6000EF0EAEF0EF00B6C0C1ED8B00C2A0B507E
:101DD6000C10D8B4F1EF0EF0F3EF0EF017EF0FF092
:101DE600010E0D6EFBEF0EF0D8900B360C360D2A59
:101DF6000CAE00EF0FF002EF0FF0F7EF0EF00B5006
:101E0600095C0C500A58D8A00BEF0FF00DEF0FF03D
:101E160011EF0FF00B50095E0C500A5AD8900C3295
:101E26000B320D2E02EF0FF00E50D8B41DEF0FF04F
:101E36001FEF0FF023EF0FF0096C0A1ED8B00A2A25
:101E460009C009F00AC00AF01200000E026E000E68
:101E5600036E270E0324D96EDA6A000EDA22DF50EB
:101E6600016E200E0324F66EF76A060EF7220800AE
:101E7600F5500118D8A442EF0FF044EF0FF05DEFD4
:101E86000FF0220E0324D96EDA6A000EDA22DF5032
:101E9600016E1B0E0324F66EF76A060EF722080083
:101EA600F5500118D8A45AEF0FF05CEF0FF05DEF74
:101EB6000FF0022A032A030E036464EF0FF066EFA5
:101EC6000FF02CEF0FF0040E0218D8A46DEF0FF0F0
:101ED6006FEF0FF072EF0FF0010E73EF0FF0000EC1
:101EE6001200000E056E000E046E04C001F0010E15
:101EF600026E000E036E012A84EF0FF0D8900236B0
:101F06000336012E81EF0FF03050021631500316C2
:101F160002500310D8B492EF0FF094EF0FF09EEF3B
:101F26000FF0110E0424F66E060E0520F76E08005B
:101F3600F550AFEF0FF0044A052A05BEACEF0FF0DF
:101F4600055009E10A0E045CD8A0ACEF0FF0AEEF25
:101F56000FF078EF0FF0000E1200000E066E000E66
:101F6600056E03500410D8B4BBEF0FF0BDEF0FF0B1
:101F7600E5EF0FF0010E076EC5EF0FF0D8900336B0
:101F86000436072A04AECAEF0FF0CCEF0FF0C1EF0C
:101F96000FF0D890053606360350015C04500258FF
:101FA600D8A0D8EF0FF0DAEF0FF0DFEF0FF0035005
:101FB600015E0450025A0580D89004320332072E7F
:101FC600CCEF0FF005C001F006C002F012000A6E59
:101FD600010ECB24016E026A000E02220AC003F033
:101FE600046A36EC12F001C00BF002C00CF00BC014
:101FF60001F00CC002F0000E046E190E036EB0EC78
:102006000FF001C00BF002C00CF0FF0E0B16030E12
:102016000C160BC008F00CC009F0D8900932083233
:10202600D890093208320850BB6E0BC008F0030E78
:1020360008160838F00BBA121200A5EC12F071EC73
:102046000CF074EC0FF00009D8B42CEF10F02EEF62
:1020560010F04FEF10F0270E3924D96EDA6A000E11
:10206600DA2274EC0FF0DF6E270E3924D96EDA6AA5
:10207600000EDA22DF506FEC12F0392A040E3918FE
:10208600D8A448EF10F04AEF10F04FEF10F0000E12
:10209600396E020E50EF10F0010E1200A5EC12F090
:1020A60071EC0CF074EC0FF00009D8B45DEF10F091
:1020B6005FEF10F080EF10F0220E3824D96EDA6A46
:1020C600000EDA2274EC0FF0DF6E220E3824D96E81
:1020D600DA6A000EDA22DF506FEC12F0382A040EAC
:1020E6003818D8A479EF10F07BEF10F080EF10F0DD
:1020F600000E386E030E81EF10F0020E12000D6E08
:102106000DC00CF00C3A0F0E0C160C50076E086A38
:1021160031EC11F0000E026E1D0E016E0AC003F0C6
:102126000BC004F0B8EC08F07EEC11F00DC00CF01A
:102136000F0E0C160C50076E086A31EC11F0000EEB
:10214600026E1D0E016E0AC003F00BC004F0B8EC5F
:1021560008F07EEC11F01200106E0F50D8A4B6EF06
:1021660010F0B8EF10F0BAEF10F010C035F00F0411
:10217600D8A4C0EF10F0C2EF10F0C4EF10F010C0FA
:1021860034F0020E0F18D8A4CBEF10F0CDEF10F0FC
:10219600CFEF10F010C033F0030E0F18D8A4D6EF0F
:1021A60010F0D8EF10F0DAEF10F010C032F0120095
:1021B600000E026E180E016E000E046E000E036E07
:1021C600DFEC09F0000E026E190E016E000E046EB1
:1021D600000E036EDFEC09F0000E026E1A0E016EA1
:1021E600000E046E000E036EDFEC09F0000E026EA8
:1021F6001B0E016E000E046E000E036EDFEC09F07E
:102206009FEC11F01200000E146E000E136E1CEF00
:1022160011F013500F24116E14501020126E11C0BD
:10222600F6FF12C0F7FF0800F5506FEC12F0134AE4
:10223600142A13500F24116E14501020126E11C060
:10224600F6FF12C0F7FF0800F5500009D8A42EEFDC
:1022560011F030EF11F00CEF11F01200000E026ECB
:10226600080E016E000E046E000E036EB8EC08F048
:10227600000E096E000E026E1E0E016E800E071411
:10228600036E046AB8EC08F021EC12F0D890073619
:102296000836092A070E096453EF11F055EF11F0BD
:1022A6003DEF11F00CEC12F01200000E0F6E000E56
:1022B600AFEC10F0010E0F6E000EAFEC10F0020E38
:1022C6000F6E000EAFEC10F0030E0F6E000EAFECAB
:1022D60010F0000E116E040E116474EF11F076EF1B
:1022E60011F078EF11F07DEF11F006EC0BF0112AEA
:1022F6006EEF11F01200000E026E1C0E016E000E43
:10230600046E010E036EB8EC08F0000E026E050EA8
:10231600016EAEEC12F0000E026E1C0E016E000E87
:10232600046E000E036EB8EC08F0000E026E050E89
:10233600016EAEEC12F01200000E026E1F0E016E60
:10234600000E046E000E036EDFEC09F0000E026E46
:10235600080E016E000E046E000E036EDFEC09F02F
:10236600000E026E1E0E016E000E046E000E036E4F
:10237600DFEC09F012000F501010D8A4C5EF11F0D1
:10238600C7EF11F0CCEF11F011500F0B800F7EEC60
:1023960012F00F041010D8A4D3EF11F0D5EF11F0FE
:1023A600DAEF11F011500F0BC00F7EEC12F0120095
:1023B6009FEC11F0000E026E0A0E016E000E046E06
:1023C600010E036EDFEC09F0000E026E090E016EBF
:1023D600000E046E010E036EDFEC09F00C0EC16EEA
:1023E6001200000E056E000E046EFCEF11F0044A9A
:1023F600052A0150045C0550800A036E0250800ACB
:102406000358D8A009EF12F00BEF12F0FAEF11F013
:102416001200000E026E1F0E016E000E046E010EFB
:10242600036EB8EC08F0000E026E1F0E016E000E71
:10243600046E000E036EB8EC08F01200000E026E79
:10244600080E016E000E046E010E036EB8EC08F065
:10245600000E026E080E016E000E046E000E036E74
:10246600B8EC08F0120001500302F3CF05F0F4CFE8
:1024760006F001500402F350062602500302F35000
:10248600062605C001F006C002F01200480E016ED5
:10249600E80E026E010E036E000E046E0FC005F00C
:1024A60010C006F0076A086A0CEC0DF00104CB6E4A
:1024B60012000C6E0CC007F0086A31EC11F0000E29
:1024C600026E1D0E016E0AC003F00BC004F0B8ECDC
:1024D60008F07EEC11F012000E6E000E0B6E010E6F
:1024E6000A6E0E5082EC10F0000E026E500E016E57
:1024F600AEEC12F012000E6E000E0B6E000E0A6E9F
:102506000E5082EC10F0000E026E020E016EF4EC1C
:1025160011F012009492030ECA12CA840C0EBA6EFF
:10252600000E106E640E0F6E49EC12F0120000EEF3
:1025360022F0180EEE6AE806FDE1000EF86E0001C4
:102546002BEF03F0000E316E000E306E1200080EF7
:08255600D56ED58E12001200B3
:020000040020DA
:08000000FFFFFFFFFFFFFFFF00
:020000040030CA
:0E000000FF071F1FFF8385FF0FC00FE00F409B
:00000001FF
